{
  "address": "0xbf6EeDAc4881D0a6b9b1Af3977c89b16C759C878",
  "abi": [
    {
      "inputs": [
        {
          "internalType": "address",
          "name": "_taxRecipient",
          "type": "address"
        }
      ],
      "stateMutability": "nonpayable",
      "type": "constructor"
    },
    {
      "anonymous": false,
      "inputs": [
        {
          "indexed": true,
          "internalType": "address",
          "name": "seller",
          "type": "address"
        },
        {
          "indexed": true,
          "internalType": "uint256",
          "name": "nftID",
          "type": "uint256"
        }
      ],
      "name": "CancelledListing",
      "type": "event"
    },
    {
      "anonymous": false,
      "inputs": [
        {
          "indexed": true,
          "internalType": "address",
          "name": "seller",
          "type": "address"
        },
        {
          "indexed": true,
          "internalType": "uint256",
          "name": "nftID",
          "type": "uint256"
        },
        {
          "indexed": false,
          "internalType": "uint256",
          "name": "price",
          "type": "uint256"
        },
        {
          "indexed": true,
          "internalType": "address",
          "name": "currency",
          "type": "address"
        }
      ],
      "name": "ListingPriceChange",
      "type": "event"
    },
    {
      "anonymous": false,
      "inputs": [
        {
          "indexed": true,
          "internalType": "address",
          "name": "seller",
          "type": "address"
        },
        {
          "indexed": true,
          "internalType": "uint256",
          "name": "nftID",
          "type": "uint256"
        },
        {
          "indexed": false,
          "internalType": "uint256",
          "name": "price",
          "type": "uint256"
        },
        {
          "indexed": true,
          "internalType": "address",
          "name": "currency",
          "type": "address"
        }
      ],
      "name": "NewListing",
      "type": "event"
    },
    {
      "anonymous": false,
      "inputs": [
        {
          "indexed": true,
          "internalType": "address",
          "name": "previousOwner",
          "type": "address"
        },
        {
          "indexed": true,
          "internalType": "address",
          "name": "newOwner",
          "type": "address"
        }
      ],
      "name": "OwnershipTransferred",
      "type": "event"
    },
    {
      "anonymous": false,
      "inputs": [
        {
          "indexed": false,
          "internalType": "address",
          "name": "account",
          "type": "address"
        }
      ],
      "name": "Paused",
      "type": "event"
    },
    {
      "anonymous": false,
      "inputs": [
        {
          "indexed": true,
          "internalType": "address",
          "name": "buyer",
          "type": "address"
        },
        {
          "indexed": false,
          "internalType": "address",
          "name": "seller",
          "type": "address"
        },
        {
          "indexed": true,
          "internalType": "uint256",
          "name": "nftID",
          "type": "uint256"
        },
        {
          "indexed": false,
          "internalType": "uint256",
          "name": "price",
          "type": "uint256"
        },
        {
          "indexed": true,
          "internalType": "address",
          "name": "currency",
          "type": "address"
        }
      ],
      "name": "PurchasedListing",
      "type": "event"
    },
    {
      "anonymous": false,
      "inputs": [
        {
          "indexed": false,
          "internalType": "address",
          "name": "account",
          "type": "address"
        }
      ],
      "name": "Unpaused",
      "type": "event"
    },
    {
      "inputs": [],
      "name": "BNB",
      "outputs": [
        {
          "internalType": "address",
          "name": "",
          "type": "address"
        }
      ],
      "stateMutability": "view",
      "type": "function"
    },
    {
      "inputs": [],
      "name": "RATE_DENOMINATOR",
      "outputs": [
        {
          "internalType": "uint256",
          "name": "",
          "type": "uint256"
        }
      ],
      "stateMutability": "view",
      "type": "function"
    },
    {
      "inputs": [
        {
          "internalType": "contract IERC20",
          "name": "",
          "type": "address"
        }
      ],
      "name": "acceptedTokens",
      "outputs": [
        {
          "internalType": "bool",
          "name": "",
          "type": "bool"
        }
      ],
      "stateMutability": "view",
      "type": "function"
    },
    {
      "inputs": [
        {
          "internalType": "uint256",
          "name": "_id",
          "type": "uint256"
        },
        {
          "internalType": "uint256",
          "name": "_priceInWei",
          "type": "uint256"
        },
        {
          "internalType": "contract IERC20",
          "name": "currency",
          "type": "address"
        }
      ],
      "name": "addListing",
      "outputs": [],
      "stateMutability": "nonpayable",
      "type": "function"
    },
    {
      "inputs": [
        {
          "internalType": "uint256",
          "name": "_id",
          "type": "uint256"
        }
      ],
      "name": "cancelListing",
      "outputs": [],
      "stateMutability": "nonpayable",
      "type": "function"
    },
    {
      "inputs": [
        {
          "internalType": "uint256",
          "name": "_id",
          "type": "uint256"
        },
        {
          "internalType": "uint256",
          "name": "_newPriceInWei",
          "type": "uint256"
        },
        {
          "internalType": "contract IERC20",
          "name": "_newCurrency",
          "type": "address"
        }
      ],
      "name": "changeListingPrice",
      "outputs": [],
      "stateMutability": "nonpayable",
      "type": "function"
    },
    {
      "inputs": [
        {
          "internalType": "contract IERC20",
          "name": "_token",
          "type": "address"
        }
      ],
      "name": "disableTokens",
      "outputs": [],
      "stateMutability": "nonpayable",
      "type": "function"
    },
    {
      "inputs": [
        {
          "internalType": "contract IERC20",
          "name": "_token",
          "type": "address"
        }
      ],
      "name": "enableTokens",
      "outputs": [],
      "stateMutability": "nonpayable",
      "type": "function"
    },
    {
      "inputs": [
        {
          "internalType": "uint256",
          "name": "start",
          "type": "uint256"
        },
        {
          "internalType": "uint256",
          "name": "length",
          "type": "uint256"
        }
      ],
      "name": "getListingSlice",
      "outputs": [
        {
          "internalType": "uint256",
          "name": "returnedCount",
          "type": "uint256"
        },
        {
          "internalType": "uint256[]",
          "name": "ids",
          "type": "uint256[]"
        },
        {
          "internalType": "address[]",
          "name": "sellers",
          "type": "address[]"
        },
        {
          "internalType": "uint256[]",
          "name": "prices",
          "type": "uint256[]"
        },
        {
          "internalType": "address[]",
          "name": "currencies",
          "type": "address[]"
        }
      ],
      "stateMutability": "view",
      "type": "function"
    },
    {
      "inputs": [],
      "name": "getNumberOfListings",
      "outputs": [
        {
          "internalType": "uint256",
          "name": "",
          "type": "uint256"
        }
      ],
      "stateMutability": "view",
      "type": "function"
    },
    {
      "inputs": [],
      "name": "nftAddress",
      "outputs": [
        {
          "internalType": "contract IERC721",
          "name": "",
          "type": "address"
        }
      ],
      "stateMutability": "view",
      "type": "function"
    },
    {
      "inputs": [
        {
          "internalType": "address",
          "name": "operator",
          "type": "address"
        },
        {
          "internalType": "address",
          "name": "from",
          "type": "address"
        },
        {
          "internalType": "uint256",
          "name": "tokenId",
          "type": "uint256"
        },
        {
          "internalType": "bytes",
          "name": "data",
          "type": "bytes"
        }
      ],
      "name": "onERC721Received",
      "outputs": [
        {
          "internalType": "bytes4",
          "name": "",
          "type": "bytes4"
        }
      ],
      "stateMutability": "pure",
      "type": "function"
    },
    {
      "inputs": [],
      "name": "owner",
      "outputs": [
        {
          "internalType": "address",
          "name": "",
          "type": "address"
        }
      ],
      "stateMutability": "view",
      "type": "function"
    },
    {
      "inputs": [],
      "name": "pause",
      "outputs": [],
      "stateMutability": "nonpayable",
      "type": "function"
    },
    {
      "inputs": [],
      "name": "paused",
      "outputs": [
        {
          "internalType": "bool",
          "name": "",
          "type": "bool"
        }
      ],
      "stateMutability": "view",
      "type": "function"
    },
    {
      "inputs": [
        {
          "internalType": "uint256",
          "name": "_id",
          "type": "uint256"
        }
      ],
      "name": "purchaseListing",
      "outputs": [],
      "stateMutability": "payable",
      "type": "function"
    },
    {
      "inputs": [],
      "name": "renounceOwnership",
      "outputs": [],
      "stateMutability": "nonpayable",
      "type": "function"
    },
    {
      "inputs": [
        {
          "internalType": "address",
          "name": "_nftAddress",
          "type": "address"
        }
      ],
      "name": "setNFTAddress",
      "outputs": [],
      "stateMutability": "nonpayable",
      "type": "function"
    },
    {
      "inputs": [
        {
          "internalType": "uint256",
          "name": "_tax",
          "type": "uint256"
        }
      ],
      "name": "setTax",
      "outputs": [],
      "stateMutability": "nonpayable",
      "type": "function"
    },
    {
      "inputs": [
        {
          "internalType": "address",
          "name": "_taxRecipient",
          "type": "address"
        }
      ],
      "name": "setTaxRecipient",
      "outputs": [],
      "stateMutability": "nonpayable",
      "type": "function"
    },
    {
      "inputs": [],
      "name": "tax",
      "outputs": [
        {
          "internalType": "uint256",
          "name": "",
          "type": "uint256"
        }
      ],
      "stateMutability": "view",
      "type": "function"
    },
    {
      "inputs": [],
      "name": "taxRecipient",
      "outputs": [
        {
          "internalType": "address",
          "name": "",
          "type": "address"
        }
      ],
      "stateMutability": "view",
      "type": "function"
    },
    {
      "inputs": [
        {
          "internalType": "address",
          "name": "newOwner",
          "type": "address"
        }
      ],
      "name": "transferOwnership",
      "outputs": [],
      "stateMutability": "nonpayable",
      "type": "function"
    },
    {
      "inputs": [],
      "name": "unpause",
      "outputs": [],
      "stateMutability": "nonpayable",
      "type": "function"
    }
  ],
  "transactionHash": "0x1675f99d5d78e1dd7fefb6d4055cf83f7d2a69e15d8b119365e558b16928fac1",
  "args": [
    "0x8703d1C3cd670dd678ddFacA1e98237f6a342C3C"
  ],
  "numDeployments": 1,
  "solcInputHash": "02d047f21740e629ddd65ca2b888a33a",
  "bytecode": "0x6080604052600a6003553480156200001657600080fd5b506040516200232d3803806200232d833981016040819052620000399162000110565b6200004433620000c0565b6000805460ff60a01b19168155600280546001600160a01b0319166001600160a01b03939093169290921790915573eeeeeeeeeeeeeeeeeeeeeeeeeeeeeeeeeeeeeeee905260076020527fb2084a3e4595ccf007fb44245853374aaf0de960074375e8e0fb334712e94d0e805460ff1916600117905562000140565b600080546001600160a01b038381166001600160a01b0319831681178455604051919092169283917f8be0079c531659141344cd1fd0a4f28419497f9722a3daafe3b4186f6b6457e09190a35050565b60006020828403121562000122578081fd5b81516001600160a01b038116811462000139578182fd5b9392505050565b6121dd80620001506000396000f3fe60806040526004361061018b5760003560e01c806378e3079e116100d657806399c8d5561161007f578063dbc0554c11610059578063dbc0554c14610480578063e87f5c23146104a0578063f2fde38b146104c057600080fd5b806399c8d55614610424578063affe94271461043a578063db4c0b4c1461044f57600080fd5b806382dc4a05116100b057806382dc4a05146103c15780638456cb59146103f15780638da5cb5b1461040657600080fd5b806378e3079e1461035d5780637d085c1a1461037d5780637efad8e01461039d57600080fd5b806358f7f6d21161013857806369d037381161011257806369d0373814610308578063715018a614610328578063737ea06e1461033d57600080fd5b806358f7f6d21461027d5780635bf8633a146102bd5780635c975abb146102dd57600080fd5b80632e5bb6ff116101695780632e5bb6ff14610228578063305a67a8146102485780633f4ba83a1461026857600080fd5b8063150b7a0214610190578063169d5a7d146101f357806326c0eb1714610208575b600080fd5b34801561019c57600080fd5b506101d56101ab366004611ecf565b7f150b7a023d4804d13e8c85fb27262cb750cf6ba9f9dd3bb30d90f482ceeb4b1f95945050505050565b6040516001600160e01b031990911681526020015b60405180910390f35b610206610201366004611f89565b6104e0565b005b34801561021457600080fd5b50610206610223366004611fda565b610650565b34801561023457600080fd5b50610206610243366004611f89565b610890565b34801561025457600080fd5b50610206610263366004611f89565b610940565b34801561027457600080fd5b50610206610af1565b34801561028957600080fd5b506102a573eeeeeeeeeeeeeeeeeeeeeeeeeeeeeeeeeeeeeeee81565b6040516001600160a01b0390911681526020016101ea565b3480156102c957600080fd5b506001546102a5906001600160a01b031681565b3480156102e957600080fd5b50600054600160a01b900460ff165b60405190151581526020016101ea565b34801561031457600080fd5b50610206610323366004611eac565b610b55565b34801561033457600080fd5b50610206610bd6565b34801561034957600080fd5b506002546102a5906001600160a01b031681565b34801561036957600080fd5b50610206610378366004611eac565b610c3a565b34801561038957600080fd5b50610206610398366004611fda565b610cb6565b3480156103a957600080fd5b506103b36103e881565b6040519081526020016101ea565b3480156103cd57600080fd5b506102f86103dc366004611eac565b60076020526000908152604090205460ff1681565b3480156103fd57600080fd5b50610206610e87565b34801561041257600080fd5b506000546001600160a01b03166102a5565b34801561043057600080fd5b506103b360035481565b34801561044657600080fd5b506103b3610ee9565b34801561045b57600080fd5b5061046f61046a366004611fb9565b610efa565b6040516101ea9594939291906120bd565b34801561048c57600080fd5b5061020661049b366004611eac565b6111dc565b3480156104ac57600080fd5b506102066104bb366004611eac565b611343565b3480156104cc57600080fd5b506102066104db366004611eac565b6114a7565b806104ec600582611589565b6105335760405162461bcd60e51b8152602060048201526013602482015272151bdad95b881251081b9bdd081b1a5cdd1959606a1b60448201526064015b60405180910390fd5b600054600160a01b900460ff16156105805760405162461bcd60e51b815260206004820152601060248201526f14185d5cd8589b194e881c185d5cd95960821b604482015260640161052a565b60008061058c846115a6565b600154604051632142170760e11b8152306004820152336024820152604481018890529294509092506001600160a01b0316906342842e0e90606401600060405180830381600087803b1580156105e257600080fd5b505af11580156105f6573d6000803e3d6000fd5b505050604080830151835182516001600160a01b0391821681526020810187905291169250869133917f920a8f9c35be0190d774fab3756f84732a89b0956b58c2ac8fdf390fa0d266b9910160405180910390a450505050565b8261065c600582611589565b156106a95760405162461bcd60e51b815260206004820152601b60248201527f546f6b656e204944206d757374206e6f74206265206c69737465640000000000604482015260640161052a565b600054600160a01b900460ff16156106f65760405162461bcd60e51b815260206004820152601060248201526f14185d5cd8589b194e881c185d5cd95960821b604482015260640161052a565b6001600160a01b038216600090815260076020526040902054829060ff166107605760405162461bcd60e51b815260206004820152601460248201527f43757272656e6379206e6f7420616c6c6f776564000000000000000000000000604482015260640161052a565b6040805160608101825233815260208082018781526001600160a01b0387811684860190815260008b8152600490945294909220925183549083166001600160a01b03199182161784559051600184015592516002909201805492909116919092161790556107d0600586611a0f565b50600154604051632142170760e11b8152336004820152306024820152604481018790526001600160a01b03909116906342842e0e90606401600060405180830381600087803b15801561082357600080fd5b505af1158015610837573d6000803e3d6000fd5b50505050826001600160a01b031685336001600160a01b03167f5dad6db40cf14971a09645427495d1c2f1549a271ae906ef72c33f04ebe647f38760405161088191815260200190565b60405180910390a45050505050565b6000546001600160a01b031633146108ea5760405162461bcd60e51b815260206004820181905260248201527f4f776e61626c653a2063616c6c6572206973206e6f7420746865206f776e6572604482015260640161052a565b6103e8811061093b5760405162461bcd60e51b815260206004820152601060248201527f54617820697320746f6f206c6172676500000000000000000000000000000000604482015260640161052a565b600355565b8061094c600582611589565b61098e5760405162461bcd60e51b8152602060048201526013602482015272151bdad95b881251081b9bdd081b1a5cdd1959606a1b604482015260640161052a565b60008281526004602052604090205482906001600160a01b03163314806109ce5750336109c36000546001600160a01b031690565b6001600160a01b0316145b610a0a5760405162461bcd60e51b815260206004820152600d60248201526c1058d8d95cdcc819195b9a5959609a1b604482015260640161052a565b600083815260046020526040812080546001600160a01b031980821683556001830193909355600290910180549092169091556001600160a01b0316610a51600585611a1b565b50600154604051632142170760e11b81523060048201526001600160a01b03838116602483015260448201879052909116906342842e0e90606401600060405180830381600087803b158015610aa657600080fd5b505af1158015610aba573d6000803e3d6000fd5b50506040518692503391507ff6e9b23c95dec70093b0abc1cf13bc5d35c9af03743f941904a4ef664e0119fb90600090a350505050565b6000546001600160a01b03163314610b4b5760405162461bcd60e51b815260206004820181905260248201527f4f776e61626c653a2063616c6c6572206973206e6f7420746865206f776e6572604482015260640161052a565b610b53611a27565b565b80610b67816380ac58cd60e01b611acd565b610bb35760405162461bcd60e51b815260206004820152601060248201527f6e6f742076616c69642045524337323100000000000000000000000000000000604482015260640161052a565b50600180546001600160a01b0319166001600160a01b0392909216919091179055565b6000546001600160a01b03163314610c305760405162461bcd60e51b815260206004820181905260248201527f4f776e61626c653a2063616c6c6572206973206e6f7420746865206f776e6572604482015260640161052a565b610b536000611ae9565b6000546001600160a01b03163314610c945760405162461bcd60e51b815260206004820181905260248201527f4f776e61626c653a2063616c6c6572206973206e6f7420746865206f776e6572604482015260640161052a565b600280546001600160a01b0319166001600160a01b0392909216919091179055565b82610cc2600582611589565b610d045760405162461bcd60e51b8152602060048201526013602482015272151bdad95b881251081b9bdd081b1a5cdd1959606a1b604482015260640161052a565b60008481526004602052604090205484906001600160a01b03163314610d5c5760405162461bcd60e51b815260206004820152600d60248201526c1058d8d95cdcc819195b9a5959609a1b604482015260640161052a565b600054600160a01b900460ff1615610da95760405162461bcd60e51b815260206004820152601060248201526f14185d5cd8589b194e881c185d5cd95960821b604482015260640161052a565b6001600160a01b038316600090815260076020526040902054839060ff16610e135760405162461bcd60e51b815260206004820152601460248201527f43757272656e6379206e6f7420616c6c6f776564000000000000000000000000604482015260640161052a565b6000868152600460209081526040918290206001810188905560020180546001600160a01b0319166001600160a01b0388169081179091559151878152889133917f0b8d4ec1a06e1012a4d07e3192684196345cf5224c33235d30a78783d6a5e2ac910160405180910390a4505050505050565b6000546001600160a01b03163314610ee15760405162461bcd60e51b815260206004820181905260248201527f4f776e61626c653a2063616c6c6572206973206e6f7420746865206f776e6572604482015260640161052a565b610b53611b39565b6000610ef56005611bc1565b905090565b8060608080808467ffffffffffffffff811115610f2757634e487b7160e01b600052604160045260246000fd5b604051908082528060200260200182016040528015610f50578160200160208202803683370190505b5093508567ffffffffffffffff811115610f7a57634e487b7160e01b600052604160045260246000fd5b604051908082528060200260200182016040528015610fa3578160200160208202803683370190505b5092508567ffffffffffffffff811115610fcd57634e487b7160e01b600052604160045260246000fd5b604051908082528060200260200182016040528015610ff6578160200160208202803683370190505b5091508567ffffffffffffffff81111561102057634e487b7160e01b600052604160045260246000fd5b604051908082528060200260200182016040528015611049578160200160208202803683370190505b5090506000875b61105a888a61211c565b8110156111cf5761106b6005611bc1565b8110611079575094506111d2565b6000611086600583611bcb565b600081815260046020908152604091829020825160608101845281546001600160a01b0390811682526001830154938201939093526002909101549091169181019190915288519192509082908990869081106110f357634e487b7160e01b600052603260045260246000fd5b602002602001018181525050806000015187858151811061112457634e487b7160e01b600052603260045260246000fd5b60200260200101906001600160a01b031690816001600160a01b031681525050806040015185858151811061116957634e487b7160e01b600052603260045260246000fd5b6001600160a01b03909216602092830291909101820152810151868561118e8161218a565b9650815181106111ae57634e487b7160e01b600052603260045260246000fd5b602002602001018181525050505080806111c79061218a565b915050611050565b50505b9295509295909350565b6000546001600160a01b031633146112365760405162461bcd60e51b815260206004820181905260248201527f4f776e61626c653a2063616c6c6572206973206e6f7420746865206f776e6572604482015260640161052a565b806000816001600160a01b03166318160ddd6040518163ffffffff1660e01b815260040160206040518083038186803b15801561127257600080fd5b505afa158015611286573d6000803e3d6000fd5b505050506040513d601f19601f820116820180604052508101906112aa9190611fa1565b101561131e5760405162461bcd60e51b815260206004820152603660248201527f54686520616363657074656420746f6b656e2061646472657373206d7573742060448201527f62652061206465706c6f79656420636f6e747261637400000000000000000000606482015260840161052a565b506001600160a01b03166000908152600760205260409020805460ff19166001179055565b6000546001600160a01b0316331461139d5760405162461bcd60e51b815260206004820181905260248201527f4f776e61626c653a2063616c6c6572206973206e6f7420746865206f776e6572604482015260640161052a565b806000816001600160a01b03166318160ddd6040518163ffffffff1660e01b815260040160206040518083038186803b1580156113d957600080fd5b505afa1580156113ed573d6000803e3d6000fd5b505050506040513d601f19601f820116820180604052508101906114119190611fa1565b10156114855760405162461bcd60e51b815260206004820152603660248201527f54686520616363657074656420746f6b656e2061646472657373206d7573742060448201527f62652061206465706c6f79656420636f6e747261637400000000000000000000606482015260840161052a565b506001600160a01b03166000908152600760205260409020805460ff19169055565b6000546001600160a01b031633146115015760405162461bcd60e51b815260206004820181905260248201527f4f776e61626c653a2063616c6c6572206973206e6f7420746865206f776e6572604482015260640161052a565b6001600160a01b03811661157d5760405162461bcd60e51b815260206004820152602660248201527f4f776e61626c653a206e6577206f776e657220697320746865207a65726f206160448201527f6464726573730000000000000000000000000000000000000000000000000000606482015260840161052a565b61158681611ae9565b50565b600081815260018301602052604081205415155b90505b92915050565b60408051606081018252600080825260208083018290528284018290528482526004905291822060018101546002820154915490916001600160a01b0390811691168433905060006103e8600354866115ff9190612154565b6116099190612134565b905060006116178287612173565b90506000600460008b81526020019081526020016000206040518060600160405290816000820160009054906101000a90046001600160a01b03166001600160a01b03166001600160a01b03168152602001600182015481526020016002820160009054906101000a90046001600160a01b03166001600160a01b03166001600160a01b0316815250509050600460008b8152602001908152602001600020600080820160006101000a8154906001600160a01b03021916905560018201600090556002820160006101000a8154906001600160a01b03021916905550506117098a6005611a1b90919063ffffffff16565b506001600160a01b03861673eeeeeeeeeeeeeeeeeeeeeeeeeeeeeeeeeeeeeeee14611935578215611834576002546040516323b872dd60e01b81526001600160a01b038681166004830152918216602482015260448101859052908716906323b872dd90606401602060405180830381600087803b15801561178a57600080fd5b505af115801561179e573d6000803e3d6000fd5b505050506040513d601f19601f820116820180604052508101906117c29190611f69565b6118345760405162461bcd60e51b815260206004820152603360248201527f5472616e73666572696e67207468652074617820746f20746865204d61726b6560448201527f74706c616365206f776e6572206661696c656400000000000000000000000000606482015260840161052a565b6040516323b872dd60e01b81526001600160a01b0385811660048301528681166024830152604482018490528716906323b872dd90606401602060405180830381600087803b15801561188657600080fd5b505af115801561189a573d6000803e3d6000fd5b505050506040513d601f19601f820116820180604052508101906118be9190611f69565b6119305760405162461bcd60e51b815260206004820152603060248201527f5472616e73666572696e67207468652073616c6520616d6f756e7420746f207460448201527f68652073656c6c6572206661696c656400000000000000000000000000000000606482015260840161052a565b6119ff565b863410156119855760405162461bcd60e51b815260206004820152601c60248201527f5472616e73666572696e672076616c7565206e6f7420656e6f75676800000000604482015260640161052a565b82156119c7576002546040516001600160a01b039091169084156108fc029085906000818181858888f193505050501580156119c5573d6000803e3d6000fd5b505b6040516001600160a01b0386169083156108fc029084906000818181858888f193505050501580156119fd573d6000803e3d6000fd5b505b9599959850949650505050505050565b600061159d8383611bd7565b600061159d8383611c26565b600054600160a01b900460ff16611a805760405162461bcd60e51b815260206004820152601460248201527f5061757361626c653a206e6f7420706175736564000000000000000000000000604482015260640161052a565b6000805460ff60a01b191690557f5db9ee0a495bf2e6ff9c91a7834c1ba4fdd244a5e8aa4e537bd38aeae4b073aa335b6040516001600160a01b03909116815260200160405180910390a1565b6000611ad883611d43565b801561159d575061159d8383611d76565b600080546001600160a01b038381166001600160a01b0319831681178455604051919092169283917f8be0079c531659141344cd1fd0a4f28419497f9722a3daafe3b4186f6b6457e09190a35050565b600054600160a01b900460ff1615611b865760405162461bcd60e51b815260206004820152601060248201526f14185d5cd8589b194e881c185d5cd95960821b604482015260640161052a565b6000805460ff60a01b1916600160a01b1790557f62e78cea01bee320cd4e420270b5ea74000d11b0c9f74754ebdbfc544b05a258611ab03390565b60006115a0825490565b600061159d8383611e74565b6000818152600183016020526040812054611c1e575081546001818101845560008481526020808220909301849055845484825282860190935260409020919091556115a0565b5060006115a0565b60008181526001830160205260408120548015611d39576000611c4a600183612173565b8554909150600090611c5e90600190612173565b9050818114611cdf576000866000018281548110611c8c57634e487b7160e01b600052603260045260246000fd5b9060005260206000200154905080876000018481548110611cbd57634e487b7160e01b600052603260045260246000fd5b6000918252602080832090910192909255918252600188019052604090208390555b8554869080611cfe57634e487b7160e01b600052603160045260246000fd5b6001900381819060005260206000200160009055905585600101600086815260200190815260200160002060009055600193505050506115a0565b60009150506115a0565b6000611d56826301ffc9a760e01b611d76565b80156115a05750611d6f826001600160e01b0319611d76565b1592915050565b604080516001600160e01b0319831660248083019190915282518083039091018152604490910182526020810180517bffffffffffffffffffffffffffffffffffffffffffffffffffffffff166301ffc9a760e01b179052905160009190829081906001600160a01b0387169061753090611df2908690612084565b6000604051808303818686fa925050503d8060008114611e2e576040519150601f19603f3d011682016040523d82523d6000602084013e611e33565b606091505b5091509150602081511015611e4e57600093505050506115a0565b818015611e6a575080806020019051810190611e6a9190611f69565b9695505050505050565b6000826000018281548110611e9957634e487b7160e01b600052603260045260246000fd5b9060005260206000200154905092915050565b600060208284031215611ebd578081fd5b8135611ec8816121bb565b9392505050565b600080600080600060808688031215611ee6578081fd5b8535611ef1816121bb565b94506020860135611f01816121bb565b935060408601359250606086013567ffffffffffffffff80821115611f24578283fd5b818801915088601f830112611f37578283fd5b813581811115611f45578384fd5b896020828501011115611f56578384fd5b9699959850939650602001949392505050565b600060208284031215611f7a578081fd5b81518015158114611ec8578182fd5b600060208284031215611f9a578081fd5b5035919050565b600060208284031215611fb2578081fd5b5051919050565b60008060408385031215611fcb578182fd5b50508035926020909101359150565b600080600060608486031215611fee578283fd5b83359250602084013591506040840135612007816121bb565b809150509250925092565b6000815180845260208085019450808401835b8381101561204a5781516001600160a01b031687529582019590820190600101612025565b509495945050505050565b6000815180845260208085019450808401835b8381101561204a57815187529582019590820190600101612068565b60008251815b818110156120a4576020818601810151858301520161208a565b818111156120b25782828501525b509190910192915050565b85815260a0602082015260006120d660a0830187612055565b82810360408401526120e88187612012565b905082810360608401526120fc8186612055565b905082810360808401526121108185612012565b98975050505050505050565b6000821982111561212f5761212f6121a5565b500190565b60008261214f57634e487b7160e01b81526012600452602481fd5b500490565b600081600019048311821515161561216e5761216e6121a5565b500290565b600082821015612185576121856121a5565b500390565b600060001982141561219e5761219e6121a5565b5060010190565b634e487b7160e01b600052601160045260246000fd5b6001600160a01b038116811461158657600080fdfea164736f6c6343000804000a",
  "devdoc": {
    "kind": "dev",
    "methods": {
      "onERC721Received(address,address,uint256,bytes)": {
        "details": "Whenever an {IERC721} `tokenId` token is transferred to this contract via {IERC721-safeTransferFrom} by `operator` from `from`, this function is called. It must return its Solidity selector to confirm the token transfer. If any other value is returned or the interface is not implemented by the recipient, the transfer will be reverted. The selector can be obtained in Solidity with `IERC721.onERC721Received.selector`."
      },
      "owner()": {
        "details": "Returns the address of the current owner."
      },
      "paused()": {
        "details": "Returns true if the contract is paused, and false otherwise."
      },
      "renounceOwnership()": {
        "details": "Leaves the contract without owner. It will not be possible to call `onlyOwner` functions anymore. Can only be called by the current owner. NOTE: Renouncing ownership will leave the contract without an owner, thereby removing any functionality that is only available to the owner."
      },
      "transferOwnership(address)": {
        "details": "Transfers ownership of the contract to a new account (`newOwner`). Can only be called by the current owner."
      }
    },
    "version": 1
  },
  "userdoc": {
    "kind": "user",
    "methods": {},
    "version": 1
  },
  "storageLayout": {
    "storage": [
      {
        "astId": 7,
        "contract": "contracts/Market.sol:Market",
        "label": "_owner",
        "offset": 0,
        "slot": "0",
        "type": "t_address"
      },
      {
        "astId": 122,
        "contract": "contracts/Market.sol:Market",
        "label": "_paused",
        "offset": 20,
        "slot": "0",
        "type": "t_bool"
      },
      {
        "astId": 4129,
        "contract": "contracts/Market.sol:Market",
        "label": "nftAddress",
        "offset": 0,
        "slot": "1",
        "type": "t_contract(IERC721)2093"
      },
      {
        "astId": 4131,
        "contract": "contracts/Market.sol:Market",
        "label": "taxRecipient",
        "offset": 0,
        "slot": "2",
        "type": "t_address"
      },
      {
        "astId": 4134,
        "contract": "contracts/Market.sol:Market",
        "label": "tax",
        "offset": 0,
        "slot": "3",
        "type": "t_uint256"
      },
      {
        "astId": 4142,
        "contract": "contracts/Market.sol:Market",
        "label": "listings",
        "offset": 0,
        "slot": "4",
        "type": "t_mapping(t_uint256,t_struct(Listing)4158_storage)"
      },
      {
        "astId": 4145,
        "contract": "contracts/Market.sol:Market",
        "label": "listedTokenIDs",
        "offset": 0,
        "slot": "5",
        "type": "t_struct(UintSet)3966_storage"
      },
      {
        "astId": 4150,
        "contract": "contracts/Market.sol:Market",
        "label": "acceptedTokens",
        "offset": 0,
        "slot": "7",
        "type": "t_mapping(t_contract(IERC20)862,t_bool)"
      }
    ],
    "types": {
      "t_address": {
        "encoding": "inplace",
        "label": "address",
        "numberOfBytes": "20"
      },
      "t_array(t_bytes32)dyn_storage": {
        "base": "t_bytes32",
        "encoding": "dynamic_array",
        "label": "bytes32[]",
        "numberOfBytes": "32"
      },
      "t_bool": {
        "encoding": "inplace",
        "label": "bool",
        "numberOfBytes": "1"
      },
      "t_bytes32": {
        "encoding": "inplace",
        "label": "bytes32",
        "numberOfBytes": "32"
      },
      "t_contract(IERC20)862": {
        "encoding": "inplace",
        "label": "contract IERC20",
        "numberOfBytes": "20"
      },
      "t_contract(IERC721)2093": {
        "encoding": "inplace",
        "label": "contract IERC721",
        "numberOfBytes": "20"
      },
      "t_mapping(t_bytes32,t_uint256)": {
        "encoding": "mapping",
        "key": "t_bytes32",
        "label": "mapping(bytes32 => uint256)",
        "numberOfBytes": "32",
        "value": "t_uint256"
      },
      "t_mapping(t_contract(IERC20)862,t_bool)": {
        "encoding": "mapping",
        "key": "t_contract(IERC20)862",
        "label": "mapping(contract IERC20 => bool)",
        "numberOfBytes": "32",
        "value": "t_bool"
      },
      "t_mapping(t_uint256,t_struct(Listing)4158_storage)": {
        "encoding": "mapping",
        "key": "t_uint256",
        "label": "mapping(uint256 => struct Market.Listing)",
        "numberOfBytes": "32",
        "value": "t_struct(Listing)4158_storage"
      },
      "t_struct(Listing)4158_storage": {
        "encoding": "inplace",
        "label": "struct Market.Listing",
        "members": [
          {
            "astId": 4152,
            "contract": "contracts/Market.sol:Market",
            "label": "seller",
            "offset": 0,
            "slot": "0",
            "type": "t_address"
          },
          {
            "astId": 4154,
            "contract": "contracts/Market.sol:Market",
            "label": "price",
            "offset": 0,
            "slot": "1",
            "type": "t_uint256"
          },
          {
            "astId": 4157,
            "contract": "contracts/Market.sol:Market",
            "label": "currency",
            "offset": 0,
            "slot": "2",
            "type": "t_contract(IERC20)862"
          }
        ],
        "numberOfBytes": "96"
      },
      "t_struct(Set)3508_storage": {
        "encoding": "inplace",
        "label": "struct EnumerableSet.Set",
        "members": [
          {
            "astId": 3503,
            "contract": "contracts/Market.sol:Market",
            "label": "_values",
            "offset": 0,
            "slot": "0",
            "type": "t_array(t_bytes32)dyn_storage"
          },
          {
            "astId": 3507,
            "contract": "contracts/Market.sol:Market",
            "label": "_indexes",
            "offset": 0,
            "slot": "1",
            "type": "t_mapping(t_bytes32,t_uint256)"
          }
        ],
        "numberOfBytes": "64"
      },
      "t_struct(UintSet)3966_storage": {
        "encoding": "inplace",
        "label": "struct EnumerableSet.UintSet",
        "members": [
          {
            "astId": 3965,
            "contract": "contracts/Market.sol:Market",
            "label": "_inner",
            "offset": 0,
            "slot": "0",
            "type": "t_struct(Set)3508_storage"
          }
        ],
        "numberOfBytes": "64"
      },
      "t_uint256": {
        "encoding": "inplace",
        "label": "uint256",
        "numberOfBytes": "32"
      }
    }
  }
}