{
  "address": "0x99A092552604Ce7a6e5ECb8C49f19dac752dCe66",
  "abi": [
    {
      "inputs": [
        {
          "internalType": "string",
          "name": "_baseUri",
          "type": "string"
        }
      ],
      "stateMutability": "nonpayable",
      "type": "constructor"
    },
    {
      "anonymous": false,
      "inputs": [
        {
          "indexed": true,
          "internalType": "address",
          "name": "owner",
          "type": "address"
        },
        {
          "indexed": true,
          "internalType": "address",
          "name": "approved",
          "type": "address"
        },
        {
          "indexed": true,
          "internalType": "uint256",
          "name": "tokenId",
          "type": "uint256"
        }
      ],
      "name": "Approval",
      "type": "event"
    },
    {
      "anonymous": false,
      "inputs": [
        {
          "indexed": true,
          "internalType": "address",
          "name": "owner",
          "type": "address"
        },
        {
          "indexed": true,
          "internalType": "address",
          "name": "operator",
          "type": "address"
        },
        {
          "indexed": false,
          "internalType": "bool",
          "name": "approved",
          "type": "bool"
        }
      ],
      "name": "ApprovalForAll",
      "type": "event"
    },
    {
      "anonymous": false,
      "inputs": [
        {
          "indexed": true,
          "internalType": "address",
          "name": "previousOwner",
          "type": "address"
        },
        {
          "indexed": true,
          "internalType": "address",
          "name": "newOwner",
          "type": "address"
        }
      ],
      "name": "OwnershipTransferred",
      "type": "event"
    },
    {
      "anonymous": false,
      "inputs": [
        {
          "indexed": false,
          "internalType": "address",
          "name": "account",
          "type": "address"
        }
      ],
      "name": "Paused",
      "type": "event"
    },
    {
      "anonymous": false,
      "inputs": [
        {
          "indexed": true,
          "internalType": "uint256",
          "name": "tokenId",
          "type": "uint256"
        },
        {
          "indexed": true,
          "internalType": "address",
          "name": "to",
          "type": "address"
        }
      ],
      "name": "Redeem",
      "type": "event"
    },
    {
      "anonymous": false,
      "inputs": [
        {
          "indexed": true,
          "internalType": "address",
          "name": "from",
          "type": "address"
        },
        {
          "indexed": true,
          "internalType": "address",
          "name": "to",
          "type": "address"
        },
        {
          "indexed": true,
          "internalType": "uint256",
          "name": "tokenId",
          "type": "uint256"
        }
      ],
      "name": "Transfer",
      "type": "event"
    },
    {
      "anonymous": false,
      "inputs": [
        {
          "indexed": false,
          "internalType": "address",
          "name": "account",
          "type": "address"
        }
      ],
      "name": "Unpaused",
      "type": "event"
    },
    {
      "anonymous": false,
      "inputs": [
        {
          "indexed": true,
          "internalType": "address",
          "name": "backedTokenAddr",
          "type": "address"
        },
        {
          "indexed": false,
          "internalType": "uint256",
          "name": "amount",
          "type": "uint256"
        }
      ],
      "name": "Withdraw",
      "type": "event"
    },
    {
      "inputs": [],
      "name": "MAX_TOTAL_SUPPLY",
      "outputs": [
        {
          "internalType": "uint256",
          "name": "",
          "type": "uint256"
        }
      ],
      "stateMutability": "view",
      "type": "function"
    },
    {
      "inputs": [
        {
          "internalType": "address",
          "name": "to",
          "type": "address"
        },
        {
          "internalType": "uint256",
          "name": "tokenId",
          "type": "uint256"
        }
      ],
      "name": "approve",
      "outputs": [],
      "stateMutability": "nonpayable",
      "type": "function"
    },
    {
      "inputs": [
        {
          "internalType": "uint256",
          "name": "",
          "type": "uint256"
        }
      ],
      "name": "backedAmounts",
      "outputs": [
        {
          "internalType": "uint256",
          "name": "",
          "type": "uint256"
        }
      ],
      "stateMutability": "view",
      "type": "function"
    },
    {
      "inputs": [],
      "name": "backedTokenAddress",
      "outputs": [
        {
          "internalType": "address",
          "name": "",
          "type": "address"
        }
      ],
      "stateMutability": "view",
      "type": "function"
    },
    {
      "inputs": [
        {
          "internalType": "address",
          "name": "owner",
          "type": "address"
        }
      ],
      "name": "balanceOf",
      "outputs": [
        {
          "internalType": "uint256",
          "name": "",
          "type": "uint256"
        }
      ],
      "stateMutability": "view",
      "type": "function"
    },
    {
      "inputs": [],
      "name": "baseURI",
      "outputs": [
        {
          "internalType": "string",
          "name": "",
          "type": "string"
        }
      ],
      "stateMutability": "view",
      "type": "function"
    },
    {
      "inputs": [
        {
          "internalType": "uint256",
          "name": "tokenId",
          "type": "uint256"
        }
      ],
      "name": "burn",
      "outputs": [],
      "stateMutability": "nonpayable",
      "type": "function"
    },
    {
      "inputs": [],
      "name": "decimals",
      "outputs": [
        {
          "internalType": "uint8",
          "name": "",
          "type": "uint8"
        }
      ],
      "stateMutability": "pure",
      "type": "function"
    },
    {
      "inputs": [
        {
          "internalType": "uint256",
          "name": "tokenId",
          "type": "uint256"
        }
      ],
      "name": "getApproved",
      "outputs": [
        {
          "internalType": "address",
          "name": "",
          "type": "address"
        }
      ],
      "stateMutability": "view",
      "type": "function"
    },
    {
      "inputs": [],
      "name": "getCurrentCounter",
      "outputs": [
        {
          "internalType": "uint256",
          "name": "",
          "type": "uint256"
        }
      ],
      "stateMutability": "view",
      "type": "function"
    },
    {
      "inputs": [
        {
          "internalType": "address",
          "name": "_owner",
          "type": "address"
        },
        {
          "internalType": "uint256",
          "name": "_offset",
          "type": "uint256"
        },
        {
          "internalType": "uint256",
          "name": "_limit",
          "type": "uint256"
        }
      ],
      "name": "getTokenIdsPage",
      "outputs": [
        {
          "internalType": "uint256[]",
          "name": "",
          "type": "uint256[]"
        }
      ],
      "stateMutability": "view",
      "type": "function"
    },
    {
      "inputs": [
        {
          "internalType": "address",
          "name": "owner",
          "type": "address"
        },
        {
          "internalType": "address",
          "name": "operator",
          "type": "address"
        }
      ],
      "name": "isApprovedForAll",
      "outputs": [
        {
          "internalType": "bool",
          "name": "",
          "type": "bool"
        }
      ],
      "stateMutability": "view",
      "type": "function"
    },
    {
      "inputs": [],
      "name": "lockMetadata",
      "outputs": [],
      "stateMutability": "nonpayable",
      "type": "function"
    },
    {
      "inputs": [],
      "name": "lockedMetadata",
      "outputs": [
        {
          "internalType": "bool",
          "name": "",
          "type": "bool"
        }
      ],
      "stateMutability": "view",
      "type": "function"
    },
    {
      "inputs": [],
      "name": "name",
      "outputs": [
        {
          "internalType": "string",
          "name": "",
          "type": "string"
        }
      ],
      "stateMutability": "view",
      "type": "function"
    },
    {
      "inputs": [],
      "name": "owner",
      "outputs": [
        {
          "internalType": "address",
          "name": "",
          "type": "address"
        }
      ],
      "stateMutability": "view",
      "type": "function"
    },
    {
      "inputs": [
        {
          "internalType": "uint256",
          "name": "tokenId",
          "type": "uint256"
        }
      ],
      "name": "ownerOf",
      "outputs": [
        {
          "internalType": "address",
          "name": "",
          "type": "address"
        }
      ],
      "stateMutability": "view",
      "type": "function"
    },
    {
      "inputs": [],
      "name": "pause",
      "outputs": [],
      "stateMutability": "nonpayable",
      "type": "function"
    },
    {
      "inputs": [],
      "name": "paused",
      "outputs": [
        {
          "internalType": "bool",
          "name": "",
          "type": "bool"
        }
      ],
      "stateMutability": "view",
      "type": "function"
    },
    {
      "inputs": [
        {
          "internalType": "uint256",
          "name": "_tokenId",
          "type": "uint256"
        }
      ],
      "name": "redeem",
      "outputs": [],
      "stateMutability": "nonpayable",
      "type": "function"
    },
    {
      "inputs": [],
      "name": "redeemableAt",
      "outputs": [
        {
          "internalType": "uint256",
          "name": "",
          "type": "uint256"
        }
      ],
      "stateMutability": "view",
      "type": "function"
    },
    {
      "inputs": [],
      "name": "renounceOwnership",
      "outputs": [],
      "stateMutability": "nonpayable",
      "type": "function"
    },
    {
      "inputs": [
        {
          "internalType": "address",
          "name": "_to",
          "type": "address"
        },
        {
          "internalType": "string",
          "name": "_uri",
          "type": "string"
        },
        {
          "internalType": "uint256",
          "name": "_amount",
          "type": "uint256"
        },
        {
          "internalType": "uint256",
          "name": "_id",
          "type": "uint256"
        }
      ],
      "name": "safeMint",
      "outputs": [],
      "stateMutability": "nonpayable",
      "type": "function"
    },
    {
      "inputs": [
        {
          "internalType": "address",
          "name": "_to",
          "type": "address"
        },
        {
          "internalType": "string[]",
          "name": "_tokensURI",
          "type": "string[]"
        },
        {
          "internalType": "uint256[]",
          "name": "_backedTokensAmount",
          "type": "uint256[]"
        },
        {
          "internalType": "uint256",
          "name": "fromId",
          "type": "uint256"
        }
      ],
      "name": "safeMintTokens",
      "outputs": [],
      "stateMutability": "nonpayable",
      "type": "function"
    },
    {
      "inputs": [
        {
          "internalType": "address",
          "name": "from",
          "type": "address"
        },
        {
          "internalType": "address",
          "name": "to",
          "type": "address"
        },
        {
          "internalType": "uint256",
          "name": "tokenId",
          "type": "uint256"
        }
      ],
      "name": "safeTransferFrom",
      "outputs": [],
      "stateMutability": "nonpayable",
      "type": "function"
    },
    {
      "inputs": [
        {
          "internalType": "address",
          "name": "from",
          "type": "address"
        },
        {
          "internalType": "address",
          "name": "to",
          "type": "address"
        },
        {
          "internalType": "uint256",
          "name": "tokenId",
          "type": "uint256"
        },
        {
          "internalType": "bytes",
          "name": "_data",
          "type": "bytes"
        }
      ],
      "name": "safeTransferFrom",
      "outputs": [],
      "stateMutability": "nonpayable",
      "type": "function"
    },
    {
      "inputs": [
        {
          "internalType": "address",
          "name": "operator",
          "type": "address"
        },
        {
          "internalType": "bool",
          "name": "approved",
          "type": "bool"
        }
      ],
      "name": "setApprovalForAll",
      "outputs": [],
      "stateMutability": "nonpayable",
      "type": "function"
    },
    {
      "inputs": [
        {
          "internalType": "address",
          "name": "_addr",
          "type": "address"
        }
      ],
      "name": "setBackedToken",
      "outputs": [],
      "stateMutability": "nonpayable",
      "type": "function"
    },
    {
      "inputs": [
        {
          "internalType": "string",
          "name": "_uri",
          "type": "string"
        }
      ],
      "name": "setBaseURI",
      "outputs": [],
      "stateMutability": "nonpayable",
      "type": "function"
    },
    {
      "inputs": [
        {
          "internalType": "uint256",
          "name": "_redeemableAt",
          "type": "uint256"
        }
      ],
      "name": "setRedeemableAt",
      "outputs": [],
      "stateMutability": "nonpayable",
      "type": "function"
    },
    {
      "inputs": [
        {
          "internalType": "uint256[]",
          "name": "_ids",
          "type": "uint256[]"
        },
        {
          "internalType": "string[]",
          "name": "_tokensURI",
          "type": "string[]"
        }
      ],
      "name": "setTokensUri",
      "outputs": [],
      "stateMutability": "nonpayable",
      "type": "function"
    },
    {
      "inputs": [
        {
          "internalType": "bytes4",
          "name": "interfaceId",
          "type": "bytes4"
        }
      ],
      "name": "supportsInterface",
      "outputs": [
        {
          "internalType": "bool",
          "name": "",
          "type": "bool"
        }
      ],
      "stateMutability": "view",
      "type": "function"
    },
    {
      "inputs": [],
      "name": "symbol",
      "outputs": [
        {
          "internalType": "string",
          "name": "",
          "type": "string"
        }
      ],
      "stateMutability": "view",
      "type": "function"
    },
    {
      "inputs": [
        {
          "internalType": "uint256",
          "name": "index",
          "type": "uint256"
        }
      ],
      "name": "tokenByIndex",
      "outputs": [
        {
          "internalType": "uint256",
          "name": "",
          "type": "uint256"
        }
      ],
      "stateMutability": "view",
      "type": "function"
    },
    {
      "inputs": [
        {
          "internalType": "address",
          "name": "owner",
          "type": "address"
        },
        {
          "internalType": "uint256",
          "name": "index",
          "type": "uint256"
        }
      ],
      "name": "tokenOfOwnerByIndex",
      "outputs": [
        {
          "internalType": "uint256",
          "name": "",
          "type": "uint256"
        }
      ],
      "stateMutability": "view",
      "type": "function"
    },
    {
      "inputs": [
        {
          "internalType": "uint256",
          "name": "tokenId",
          "type": "uint256"
        }
      ],
      "name": "tokenURI",
      "outputs": [
        {
          "internalType": "string",
          "name": "",
          "type": "string"
        }
      ],
      "stateMutability": "view",
      "type": "function"
    },
    {
      "inputs": [],
      "name": "totalSupply",
      "outputs": [
        {
          "internalType": "uint256",
          "name": "",
          "type": "uint256"
        }
      ],
      "stateMutability": "view",
      "type": "function"
    },
    {
      "inputs": [
        {
          "internalType": "address",
          "name": "from",
          "type": "address"
        },
        {
          "internalType": "address",
          "name": "to",
          "type": "address"
        },
        {
          "internalType": "uint256",
          "name": "tokenId",
          "type": "uint256"
        }
      ],
      "name": "transferFrom",
      "outputs": [],
      "stateMutability": "nonpayable",
      "type": "function"
    },
    {
      "inputs": [
        {
          "internalType": "address",
          "name": "newOwner",
          "type": "address"
        }
      ],
      "name": "transferOwnership",
      "outputs": [],
      "stateMutability": "nonpayable",
      "type": "function"
    },
    {
      "inputs": [],
      "name": "unpause",
      "outputs": [],
      "stateMutability": "nonpayable",
      "type": "function"
    },
    {
      "inputs": [
        {
          "internalType": "address",
          "name": "_backedTokenAddr",
          "type": "address"
        },
        {
          "internalType": "uint256",
          "name": "_amount",
          "type": "uint256"
        }
      ],
      "name": "withdraw",
      "outputs": [],
      "stateMutability": "nonpayable",
      "type": "function"
    }
  ],
  "transactionHash": "0xec2adf6bf3ed7e46854b96cdddd4a567273e03fb0954de29eaac50e0a72fdef0",
  "args": [
    "https://nftdata.hectagon.finance/metadata/"
  ],
  "numDeployments": 1,
  "solcInputHash": "c9758c3fbb230f1455ef3e0ab5462a6f",
  "bytecode": "0x60806040523480156200001157600080fd5b5060405162003c0738038062003c078339810160408190526200003491620001ff565b604080518082018252601481527f4865637461676f6e20546967657220547269626500000000000000000000000060208083019182528351808501909452600384526212151560ea1b908401528151919291620000949160009162000159565b508051620000aa90600190602084019062000159565b5050600b805460ff1916905550620000c233620000f6565b8051620000d790600d90602084019062000159565b50620000ef600c6200015060201b62001d6b1760201c565b5062000328565b600b80546001600160a01b03838116610100818102610100600160a81b031985161790945560405193909204169182907f8be0079c531659141344cd1fd0a4f28419497f9722a3daafe3b4186f6b6457e090600090a35050565b80546001019055565b8280546200016790620002d5565b90600052602060002090601f0160209004810192826200018b5760008555620001d6565b82601f10620001a657805160ff1916838001178555620001d6565b82800160010185558215620001d6579182015b82811115620001d6578251825591602001919060010190620001b9565b50620001e4929150620001e8565b5090565b5b80821115620001e45760008155600101620001e9565b6000602080838503121562000212578182fd5b82516001600160401b038082111562000229578384fd5b818501915085601f8301126200023d578384fd5b81518181111562000252576200025262000312565b604051601f8201601f19908116603f011681019083821181831017156200027d576200027d62000312565b81604052828152888684870101111562000295578687fd5b8693505b82841015620002b8578484018601518185018701529285019262000299565b82841115620002c957868684830101525b98975050505050505050565b600181811c90821680620002ea57607f821691505b602082108114156200030c57634e487b7160e01b600052602260045260246000fd5b50919050565b634e487b7160e01b600052604160045260246000fd5b6138cf80620003386000396000f3fe608060405234801561001057600080fd5b50600436106102d35760003560e01c80636352211e11610186578063a22cb465116100e3578063db006a7511610097578063e985e9c511610071578063e985e9c51461058f578063f2fde38b146105cb578063f3fef3a3146105de57600080fd5b8063db006a751461053c578063e3c23b081461054f578063e55d83471461056f57600080fd5b8063b88d4fde116100c8578063b88d4fde14610503578063c55956d214610516578063c87b56dd1461052957600080fd5b8063a22cb465146104dd578063b70bb84b146104f057600080fd5b806373448c461161013a5780638da5cb5b1161011f5780638da5cb5b146104b757806395d89b41146104cd578063989bdbb6146104d557600080fd5b806373448c46146104a75780638456cb59146104af57600080fd5b80636d32ddd91161016b5780636d32ddd91461047857806370a082311461048c578063715018a61461049f57600080fd5b80636352211e1461045d5780636c0360eb1461047057600080fd5b806331363aa71161023457806342966c68116101e85780634f6ccce7116101cd5780634f6ccce71461042c57806355f804b31461043f5780635c975abb1461045257600080fd5b806342966c68146104065780634d8d8a2e1461041957600080fd5b806333039d3d1161021957806333039d3d146103e25780633f4ba83a146103eb57806342842e0e146103f357600080fd5b806331363aa7146103c0578063313ce567146103d357600080fd5b806313f666671161028b57806323b872dd1161027057806323b872dd146103875780632923ce111461039a5780632f745c59146103ad57600080fd5b806313f666671461036857806318160ddd1461037f57600080fd5b8063081812fc116102bc578063081812fc14610315578063095ea7b3146103405780630aa549fa1461035557600080fd5b806301ffc9a7146102d857806306fdde0314610300575b600080fd5b6102eb6102e6366004613457565b6105f1565b60405190151581526020015b60405180910390f35b610308610602565b6040516102f791906135ee565b6103286103233660046134c2565b610694565b6040516001600160a01b0390911681526020016102f7565b61035361034e36600461337f565b61072e565b005b610353610363366004613274565b610844565b610371600e5481565b6040519081526020016102f7565b600854610371565b6103536103953660046131c0565b610a2f565b6103536103a8366004613323565b610ab7565b6103716103bb36600461337f565b610c5b565b6103536103ce3660046134c2565b610d03565b604051601281526020016102f7565b6103716103e781565b610353610dcc565b6103536104013660046131c0565b610e24565b6103536104143660046134c2565b610e3f565b6103536104273660046133da565b610ec6565b61037161043a3660046134c2565b6110bb565b61035361044d36600461348f565b61116d565b600b5460ff166102eb565b61032861046b3660046134c2565b61123b565b6103086112c6565b600f546102eb90600160a01b900460ff1681565b61037161049a366004613174565b611354565b6103536113ee565b610371611446565b610353611456565b600b5461010090046001600160a01b0316610328565b6103086114ac565b6103536114bb565b6103536104eb3660046132ed565b6115a2565b6103536104fe366004613174565b6115ad565b6103536105113660046131fb565b611673565b600f54610328906001600160a01b031681565b6103086105373660046134c2565b611701565b61035361054a3660046134c2565b61170c565b61037161055d3660046134c2565b60106020526000908152604090205481565b61058261057d3660046133a8565b611a90565b6040516102f791906135aa565b6102eb61059d36600461318e565b6001600160a01b03918216600090815260056020908152604080832093909416825291909152205460ff1690565b6103536105d9366004613174565b611b82565b6103536105ec36600461337f565b611c55565b60006105fc82611d74565b92915050565b606060008054610611906137d2565b80601f016020809104026020016040519081016040528092919081815260200182805461063d906137d2565b801561068a5780601f1061065f5761010080835404028352916020019161068a565b820191906000526020600020905b81548152906001019060200180831161066d57829003601f168201915b5050505050905090565b6000818152600260205260408120546001600160a01b03166107125760405162461bcd60e51b815260206004820152602c60248201527f4552433732313a20617070726f76656420717565727920666f72206e6f6e657860448201526b34b9ba32b73a103a37b5b2b760a11b60648201526084015b60405180910390fd5b506000908152600460205260409020546001600160a01b031690565b60006107398261123b565b9050806001600160a01b0316836001600160a01b031614156107a75760405162461bcd60e51b815260206004820152602160248201527f4552433732313a20617070726f76616c20746f2063757272656e74206f776e656044820152603960f91b6064820152608401610709565b336001600160a01b03821614806107c357506107c3813361059d565b6108355760405162461bcd60e51b815260206004820152603860248201527f4552433732313a20617070726f76652063616c6c6572206973206e6f74206f7760448201527f6e6572206e6f7220617070726f76656420666f7220616c6c00000000000000006064820152608401610709565b61083f8383611d99565b505050565b600b546001600160a01b036101009091041633146108925760405162461bcd60e51b815260206004820181905260248201526000805160206138a38339815191526044820152606401610709565b600061089d600c5490565b90508082146108e15760405162461bcd60e51b815260206004820152601060248201526f151bdad95b92590818dbdb999b1a58dd60821b6044820152606401610709565b60008451116109325760405162461bcd60e51b815260206004820152601b60248201527f546f6b656e732055524920617272617973206e6f7420656d70747900000000006044820152606401610709565b82518451146109a95760405162461bcd60e51b815260206004820152603960248201527f4c656e677468206f6620746f6b656e7355524920616e6420746f6b656e73416d60448201527f6f756e7420617272617973206973206e6f7420657175616c21000000000000006064820152608401610709565b60005b8451811015610a2757610a15868683815181106109d957634e487b7160e01b600052603260045260246000fd5b6020026020010151868481518110610a0157634e487b7160e01b600052603260045260246000fd5b602002602001015184876103a89190613656565b80610a1f8161380d565b9150506109ac565b505050505050565b610a3a335b82611e07565b610aac5760405162461bcd60e51b815260206004820152603160248201527f4552433732313a207472616e736665722063616c6c6572206973206e6f74206f60448201527f776e6572206e6f7220617070726f7665640000000000000000000000000000006064820152608401610709565b61083f838383611efe565b600b546001600160a01b03610100909104163314610b055760405162461bcd60e51b815260206004820181905260248201526000805160206138a38339815191526044820152606401610709565b6001600160a01b038416610b5b5760405162461bcd60e51b815260206004820152601560248201527f4d696e7420746f207a65726f20616464726573732100000000000000000000006044820152606401610709565b6000610b66600c5490565b90506103e7811115610be05760405162461bcd60e51b815260206004820152603260248201527f4572726f723a20546865726520617265206e6f206d6f726520746f6b656e732060448201527f6c65667420746f206265206d696e7465642100000000000000000000000000006064820152608401610709565b808214610c225760405162461bcd60e51b815260206004820152601060248201526f151bdad95b92590818dbdb999b1a58dd60821b6044820152606401610709565b610c30600c80546001019055565b610c3a85826120bd565b610c4481856120d7565b600090815260106020526040902091909155505050565b6000610c6683611354565b8210610cda5760405162461bcd60e51b815260206004820152602b60248201527f455243373231456e756d657261626c653a206f776e657220696e646578206f7560448201527f74206f6620626f756e64730000000000000000000000000000000000000000006064820152608401610709565b506001600160a01b03919091166000908152600660209081526040808320938352929052205490565b600b546001600160a01b03610100909104163314610d515760405162461bcd60e51b815260206004820181905260248201526000805160206138a38339815191526044820152606401610709565b60008111610dc75760405162461bcd60e51b815260206004820152602960248201527f5f72656465656d61626c6541742073686f756c6420626520677265617465722060448201527f7468616e207a65726f00000000000000000000000000000000000000000000006064820152608401610709565b600e55565b600b546001600160a01b03610100909104163314610e1a5760405162461bcd60e51b815260206004820181905260248201526000805160206138a38339815191526044820152606401610709565b610e22612180565b565b61083f83838360405180602001604052806000815250611673565b610e4833610a34565b610eba5760405162461bcd60e51b815260206004820152603060248201527f4552433732314275726e61626c653a2063616c6c6572206973206e6f74206f7760448201527f6e6572206e6f7220617070726f766564000000000000000000000000000000006064820152608401610709565b610ec38161221c565b50565b600b546001600160a01b03610100909104163314610f145760405162461bcd60e51b815260206004820181905260248201526000805160206138a38339815191526044820152606401610709565b600f54600160a01b900460ff1615610f7d5760405162461bcd60e51b815260206004820152602660248201527f4572726f723a20546865204d6574616461746120697320616c7265616479206c6044820152656f636b65642160d01b6064820152608401610709565b6000825111610fce5760405162461bcd60e51b815260206004820152601360248201527f494420617272617973206e6f7420656d707479000000000000000000000000006044820152606401610709565b80518251146110455760405162461bcd60e51b815260206004820152602a60248201527f4c656e677468206f6620494420616e642044617461206172726179732069732060448201527f6e6f7420657175616c21000000000000000000000000000000000000000000006064820152608401610709565b60005b825181101561083f576110a983828151811061107457634e487b7160e01b600052603260045260246000fd5b602002602001015183838151811061109c57634e487b7160e01b600052603260045260246000fd5b60200260200101516120d7565b806110b38161380d565b915050611048565b60006110c660085490565b821061113a5760405162461bcd60e51b815260206004820152602c60248201527f455243373231456e756d657261626c653a20676c6f62616c20696e646578206f60448201527f7574206f6620626f756e647300000000000000000000000000000000000000006064820152608401610709565b6008828154811061115b57634e487b7160e01b600052603260045260246000fd5b90600052602060002001549050919050565b600b546001600160a01b036101009091041633146111bb5760405162461bcd60e51b815260206004820181905260248201526000805160206138a38339815191526044820152606401610709565b600f54600160a01b900460ff16156112245760405162461bcd60e51b815260206004820152602660248201527f4572726f723a20546865204d6574616461746120697320616c7265616479206c6044820152656f636b65642160d01b6064820152608401610709565b805161123790600d906020840190612f23565b5050565b6000818152600260205260408120546001600160a01b0316806105fc5760405162461bcd60e51b815260206004820152602960248201527f4552433732313a206f776e657220717565727920666f72206e6f6e657869737460448201527f656e7420746f6b656e00000000000000000000000000000000000000000000006064820152608401610709565b600d80546112d3906137d2565b80601f01602080910402602001604051908101604052809291908181526020018280546112ff906137d2565b801561134c5780601f106113215761010080835404028352916020019161134c565b820191906000526020600020905b81548152906001019060200180831161132f57829003601f168201915b505050505081565b60006001600160a01b0382166113d25760405162461bcd60e51b815260206004820152602a60248201527f4552433732313a2062616c616e636520717565727920666f7220746865207a6560448201527f726f2061646472657373000000000000000000000000000000000000000000006064820152608401610709565b506001600160a01b031660009081526003602052604090205490565b600b546001600160a01b0361010090910416331461143c5760405162461bcd60e51b815260206004820181905260248201526000805160206138a38339815191526044820152606401610709565b610e226000612225565b6000611451600c5490565b905090565b600b546001600160a01b036101009091041633146114a45760405162461bcd60e51b815260206004820181905260248201526000805160206138a38339815191526044820152606401610709565b610e22612296565b606060018054610611906137d2565b600b546001600160a01b036101009091041633146115095760405162461bcd60e51b815260206004820181905260248201526000805160206138a38339815191526044820152606401610709565b600f54600160a01b900460ff16156115725760405162461bcd60e51b815260206004820152602660248201527f4572726f723a20546865204d6574616461746120697320616c7265616479206c6044820152656f636b65642160d01b6064820152608401610709565b600f80547fffffffffffffffffffffff00ffffffffffffffffffffffffffffffffffffffff16600160a01b179055565b611237338383612311565b600b546001600160a01b036101009091041633146115fb5760405162461bcd60e51b815260206004820181905260248201526000805160206138a38339815191526044820152606401610709565b6001600160a01b0381166116515760405162461bcd60e51b815260206004820152601a60248201527f5a65726f20616464726573733a206261636b656420746f6b656e0000000000006044820152606401610709565b600f80546001600160a01b0319166001600160a01b0392909216919091179055565b61167d3383611e07565b6116ef5760405162461bcd60e51b815260206004820152603160248201527f4552433732313a207472616e736665722063616c6c6572206973206e6f74206f60448201527f776e6572206e6f7220617070726f7665640000000000000000000000000000006064820152608401610709565b6116fb848484846123e0565b50505050565b60606105fc8261245e565b6117158161123b565b6001600160a01b0316336001600160a01b0316146117755760405162461bcd60e51b815260206004820152601160248201527f53656e646572206e6f74206f776e6572210000000000000000000000000000006044820152606401610709565b600f546001600160a01b03166117cd5760405162461bcd60e51b815260206004820152601660248201527f6261636b6564546f6b656e206973206e6f7420736574000000000000000000006044820152606401610709565b600e54429065ffffffffffff8216116118285760405162461bcd60e51b815260206004820152600f60248201527f4e6f742072656465656d61626c652100000000000000000000000000000000006044820152606401610709565b600082815260106020526040812054906118446012600a6136c5565b600f60009054906101000a90046001600160a01b03166001600160a01b031663313ce5676040518163ffffffff1660e01b815260040160206040518083038186803b15801561189257600080fd5b505afa1580156118a6573d6000803e3d6000fd5b505050506040513d601f19601f820116820180604052508101906118ca91906134f2565b6118d590600a6136c5565b6118df9084613770565b6118e9919061366e565b600f546040516370a0823160e01b81523060048201529192506000916001600160a01b03909116906370a082319060240160206040518083038186803b15801561193257600080fd5b505afa158015611946573d6000803e3d6000fd5b505050506040513d601f19601f8201168201806040525081019061196a91906134da565b9050808211156119bc5760405162461bcd60e51b815260206004820152601b60248201527f4e6f7420656e6f75676820746f6b656e20746f2072656465656d2100000000006044820152606401610709565b6119c58561221c565b60008581526010602052604080822091909155600f54905163a9059cbb60e01b8152336004820152602481018490526001600160a01b039091169063a9059cbb90604401602060405180830381600087803b158015611a2357600080fd5b505af1158015611a37573d6000803e3d6000fd5b505050506040513d601f19601f82011682018060405250810190611a5b919061343b565b50604051339086907fa03c990ba6466f1dc61a4d2e15fd72bafaf2244fa2421b01ceaba3ff09e8e63090600090a35050505050565b60606000611a9d85611354565b905060008367ffffffffffffffff811115611ac857634e487b7160e01b600052604160045260246000fd5b604051908082528060200260200182016040528015611af1578160200160208202803683370190505b5090506000855b611b028688613656565b811015611b7457838110611b1c5782945050505050611b7b565b6000611b288983610c5b565b9050808484611b368161380d565b955081518110611b5657634e487b7160e01b600052603260045260246000fd5b60209081029190910101525080611b6c8161380d565b915050611af8565b5090925050505b9392505050565b600b546001600160a01b03610100909104163314611bd05760405162461bcd60e51b815260206004820181905260248201526000805160206138a38339815191526044820152606401610709565b6001600160a01b038116611c4c5760405162461bcd60e51b815260206004820152602660248201527f4f776e61626c653a206e6577206f776e657220697320746865207a65726f206160448201527f64647265737300000000000000000000000000000000000000000000000000006064820152608401610709565b610ec381612225565b600b546001600160a01b03610100909104163314611ca35760405162461bcd60e51b815260206004820181905260248201526000805160206138a38339815191526044820152606401610709565b60405163a9059cbb60e01b8152336004820152602481018290526001600160a01b0383169063a9059cbb90604401602060405180830381600087803b158015611ceb57600080fd5b505af1158015611cff573d6000803e3d6000fd5b505050506040513d601f19601f82011682018060405250810190611d23919061343b565b50816001600160a01b03167f884edad9ce6fa2440d8a54cc123490eb96d2768479d49ff9c7366125a942436482604051611d5f91815260200190565b60405180910390a25050565b80546001019055565b60006001600160e01b0319821663780e9d6360e01b14806105fc57506105fc826125dc565b600081815260046020526040902080546001600160a01b0319166001600160a01b0384169081179091558190611dce8261123b565b6001600160a01b03167f8c5be1e5ebec7d5bd14f71427d1e84f3dd0314c0f7b2291e5b200ac8c7c3b92560405160405180910390a45050565b6000818152600260205260408120546001600160a01b0316611e805760405162461bcd60e51b815260206004820152602c60248201527f4552433732313a206f70657261746f7220717565727920666f72206e6f6e657860448201526b34b9ba32b73a103a37b5b2b760a11b6064820152608401610709565b6000611e8b8361123b565b9050806001600160a01b0316846001600160a01b03161480611ec65750836001600160a01b0316611ebb84610694565b6001600160a01b0316145b80611ef657506001600160a01b0380821660009081526005602090815260408083209388168352929052205460ff165b949350505050565b826001600160a01b0316611f118261123b565b6001600160a01b031614611f8d5760405162461bcd60e51b815260206004820152602560248201527f4552433732313a207472616e736665722066726f6d20696e636f72726563742060448201527f6f776e65720000000000000000000000000000000000000000000000000000006064820152608401610709565b6001600160a01b038216611fef5760405162461bcd60e51b8152602060048201526024808201527f4552433732313a207472616e7366657220746f20746865207a65726f206164646044820152637265737360e01b6064820152608401610709565b611ffa83838361262c565b612005600082611d99565b6001600160a01b038316600090815260036020526040812080546001929061202e90849061378f565b90915550506001600160a01b038216600090815260036020526040812080546001929061205c908490613656565b909155505060008181526002602052604080822080546001600160a01b0319166001600160a01b0386811691821790925591518493918716917fddf252ad1be2c89b69c2b068fc378daa952ba7f163c4a11628f55a4df523b3ef91a4505050565b61123782826040518060200160405280600081525061267d565b6000828152600260205260409020546001600160a01b03166121615760405162461bcd60e51b815260206004820152602e60248201527f45524337323155524953746f726167653a2055524920736574206f66206e6f6e60448201527f6578697374656e7420746f6b656e0000000000000000000000000000000000006064820152608401610709565b6000828152600a60209081526040909120825161083f92840190612f23565b600b5460ff166121d25760405162461bcd60e51b815260206004820152601460248201527f5061757361626c653a206e6f74207061757365640000000000000000000000006044820152606401610709565b600b805460ff191690557f5db9ee0a495bf2e6ff9c91a7834c1ba4fdd244a5e8aa4e537bd38aeae4b073aa335b6040516001600160a01b03909116815260200160405180910390a1565b610ec3816126fb565b600b80546001600160a01b038381166101008181027fffffffffffffffffffffff0000000000000000000000000000000000000000ff85161790945560405193909204169182907f8be0079c531659141344cd1fd0a4f28419497f9722a3daafe3b4186f6b6457e090600090a35050565b600b5460ff16156122dc5760405162461bcd60e51b815260206004820152601060248201526f14185d5cd8589b194e881c185d5cd95960821b6044820152606401610709565b600b805460ff191660011790557f62e78cea01bee320cd4e420270b5ea74000d11b0c9f74754ebdbfc544b05a2586121ff3390565b816001600160a01b0316836001600160a01b031614156123735760405162461bcd60e51b815260206004820152601960248201527f4552433732313a20617070726f766520746f2063616c6c6572000000000000006044820152606401610709565b6001600160a01b03838116600081815260056020908152604080832094871680845294825291829020805460ff191686151590811790915591519182527f17307eab39ab6107e8899845ad3d59bd9653f200f220920489ca2b5937696c31910160405180910390a3505050565b6123eb848484611efe565b6123f78484848461273b565b6116fb5760405162461bcd60e51b815260206004820152603260248201527f4552433732313a207472616e7366657220746f206e6f6e20455243373231526560448201527131b2b4bb32b91034b6b83632b6b2b73a32b960711b6064820152608401610709565b6000818152600260205260409020546060906001600160a01b03166124eb5760405162461bcd60e51b815260206004820152603160248201527f45524337323155524953746f726167653a2055524920717565727920666f722060448201527f6e6f6e6578697374656e7420746f6b656e0000000000000000000000000000006064820152608401610709565b6000828152600a602052604081208054612504906137d2565b80601f0160208091040260200160405190810160405280929190818152602001828054612530906137d2565b801561257d5780601f106125525761010080835404028352916020019161257d565b820191906000526020600020905b81548152906001019060200180831161256057829003601f168201915b50505050509050600061258e612893565b90508051600014156125a1575092915050565b8151156125d35780826040516020016125bb92919061353f565b60405160208183030381529060405292505050919050565b611ef6846128a2565b60006001600160e01b031982166380ac58cd60e01b148061260d57506001600160e01b03198216635b5e139f60e01b145b806105fc57506301ffc9a760e01b6001600160e01b03198316146105fc565b600b5460ff16156126725760405162461bcd60e51b815260206004820152601060248201526f14185d5cd8589b194e881c185d5cd95960821b6044820152606401610709565b61083f83838361298a565b6126878383612a42565b612694600084848461273b565b61083f5760405162461bcd60e51b815260206004820152603260248201527f4552433732313a207472616e7366657220746f206e6f6e20455243373231526560448201527131b2b4bb32b91034b6b83632b6b2b73a32b960711b6064820152608401610709565b61270481612b90565b6000818152600a60205260409020805461271d906137d2565b159050610ec3576000818152600a60205260408120610ec391612fa7565b60006001600160a01b0384163b1561288857604051630a85bd0160e11b81526001600160a01b0385169063150b7a029061277f90339089908890889060040161356e565b602060405180830381600087803b15801561279957600080fd5b505af19250505080156127c9575060408051601f3d908101601f191682019092526127c691810190613473565b60015b61286e573d8080156127f7576040519150601f19603f3d011682016040523d82523d6000602084013e6127fc565b606091505b5080516128665760405162461bcd60e51b815260206004820152603260248201527f4552433732313a207472616e7366657220746f206e6f6e20455243373231526560448201527131b2b4bb32b91034b6b83632b6b2b73a32b960711b6064820152608401610709565b805181602001fd5b6001600160e01b031916630a85bd0160e11b149050611ef6565b506001949350505050565b6060600d8054610611906137d2565b6000818152600260205260409020546060906001600160a01b031661292f5760405162461bcd60e51b815260206004820152602f60248201527f4552433732314d657461646174613a2055524920717565727920666f72206e6f60448201527f6e6578697374656e7420746f6b656e00000000000000000000000000000000006064820152608401610709565b6000612939612893565b905060008151116129595760405180602001604052806000815250611b7b565b8061296384612c37565b60405160200161297492919061353f565b6040516020818303038152906040529392505050565b6001600160a01b0383166129e5576129e081600880546000838152600960205260408120829055600182018355919091527ff3f7a9fe364faab93b216da50a3214154f22a0a2b415b23a84c8169e8b636ee30155565b612a08565b816001600160a01b0316836001600160a01b031614612a0857612a088382612d69565b6001600160a01b038216612a1f5761083f81612e06565b826001600160a01b0316826001600160a01b03161461083f5761083f8282612edf565b6001600160a01b038216612a985760405162461bcd60e51b815260206004820181905260248201527f4552433732313a206d696e7420746f20746865207a65726f20616464726573736044820152606401610709565b6000818152600260205260409020546001600160a01b031615612afd5760405162461bcd60e51b815260206004820152601c60248201527f4552433732313a20746f6b656e20616c7265616479206d696e746564000000006044820152606401610709565b612b096000838361262c565b6001600160a01b0382166000908152600360205260408120805460019290612b32908490613656565b909155505060008181526002602052604080822080546001600160a01b0319166001600160a01b03861690811790915590518392907fddf252ad1be2c89b69c2b068fc378daa952ba7f163c4a11628f55a4df523b3ef908290a45050565b6000612b9b8261123b565b9050612ba98160008461262c565b612bb4600083611d99565b6001600160a01b0381166000908152600360205260408120805460019290612bdd90849061378f565b909155505060008281526002602052604080822080546001600160a01b0319169055518391906001600160a01b038416907fddf252ad1be2c89b69c2b068fc378daa952ba7f163c4a11628f55a4df523b3ef908390a45050565b606081612c5b5750506040805180820190915260018152600360fc1b602082015290565b8160005b8115612c855780612c6f8161380d565b9150612c7e9050600a8361366e565b9150612c5f565b60008167ffffffffffffffff811115612cae57634e487b7160e01b600052604160045260246000fd5b6040519080825280601f01601f191660200182016040528015612cd8576020820181803683370190505b5090505b8415611ef657612ced60018361378f565b9150612cfa600a86613828565b612d05906030613656565b60f81b818381518110612d2857634e487b7160e01b600052603260045260246000fd5b60200101907effffffffffffffffffffffffffffffffffffffffffffffffffffffffffffff1916908160001a905350612d62600a8661366e565b9450612cdc565b60006001612d7684611354565b612d80919061378f565b600083815260076020526040902054909150808214612dd3576001600160a01b03841660009081526006602090815260408083208584528252808320548484528184208190558352600790915290208190555b5060009182526007602090815260408084208490556001600160a01b039094168352600681528383209183525290812055565b600854600090612e189060019061378f565b60008381526009602052604081205460088054939450909284908110612e4e57634e487b7160e01b600052603260045260246000fd5b906000526020600020015490508060088381548110612e7d57634e487b7160e01b600052603260045260246000fd5b6000918252602080832090910192909255828152600990915260408082208490558582528120556008805480612ec357634e487b7160e01b600052603160045260246000fd5b6001900381819060005260206000200160009055905550505050565b6000612eea83611354565b6001600160a01b039093166000908152600660209081526040808320868452825280832085905593825260079052919091209190915550565b828054612f2f906137d2565b90600052602060002090601f016020900481019282612f515760008555612f97565b82601f10612f6a57805160ff1916838001178555612f97565b82800160010185558215612f97579182015b82811115612f97578251825591602001919060010190612f7c565b50612fa3929150612fdd565b5090565b508054612fb3906137d2565b6000825580601f10612fc3575050565b601f016020900490600052602060002090810190610ec391905b5b80821115612fa35760008155600101612fde565b600067ffffffffffffffff83111561300c5761300c613868565b61301f601f8401601f1916602001613601565b905082815283838301111561303357600080fd5b828260208301376000602084830101529392505050565b80356001600160a01b038116811461306157600080fd5b919050565b600082601f830112613076578081fd5b8135602061308b61308683613632565b613601565b80838252828201915082860187848660051b89010111156130aa578586fd5b855b858110156130eb57813567ffffffffffffffff8111156130ca578788fd5b6130d88a87838c0101613155565b85525092840192908401906001016130ac565b5090979650505050505050565b600082601f830112613108578081fd5b8135602061311861308683613632565b80838252828201915082860187848660051b8901011115613137578586fd5b855b858110156130eb57813584529284019290840190600101613139565b600082601f830112613165578081fd5b611b7b83833560208501612ff2565b600060208284031215613185578081fd5b611b7b8261304a565b600080604083850312156131a0578081fd5b6131a98361304a565b91506131b76020840161304a565b90509250929050565b6000806000606084860312156131d4578081fd5b6131dd8461304a565b92506131eb6020850161304a565b9150604084013590509250925092565b60008060008060808587031215613210578081fd5b6132198561304a565b93506132276020860161304a565b925060408501359150606085013567ffffffffffffffff811115613249578182fd5b8501601f81018713613259578182fd5b61326887823560208401612ff2565b91505092959194509250565b60008060008060808587031215613289578384fd5b6132928561304a565b9350602085013567ffffffffffffffff808211156132ae578485fd5b6132ba88838901613066565b945060408701359150808211156132cf578384fd5b506132dc878288016130f8565b949793965093946060013593505050565b600080604083850312156132ff578182fd5b6133088361304a565b915060208301356133188161387e565b809150509250929050565b60008060008060808587031215613338578182fd5b6133418561304a565b9350602085013567ffffffffffffffff81111561335c578283fd5b61336887828801613155565b949794965050505060408301359260600135919050565b60008060408385031215613391578182fd5b61339a8361304a565b946020939093013593505050565b6000806000606084860312156133bc578081fd5b6133c58461304a565b95602085013595506040909401359392505050565b600080604083850312156133ec578182fd5b823567ffffffffffffffff80821115613403578384fd5b61340f868387016130f8565b93506020850135915080821115613424578283fd5b5061343185828601613066565b9150509250929050565b60006020828403121561344c578081fd5b8151611b7b8161387e565b600060208284031215613468578081fd5b8135611b7b8161388c565b600060208284031215613484578081fd5b8151611b7b8161388c565b6000602082840312156134a0578081fd5b813567ffffffffffffffff8111156134b6578182fd5b611ef684828501613155565b6000602082840312156134d3578081fd5b5035919050565b6000602082840312156134eb578081fd5b5051919050565b600060208284031215613503578081fd5b815160ff81168114611b7b578182fd5b6000815180845261352b8160208601602086016137a6565b601f01601f19169290920160200192915050565b600083516135518184602088016137a6565b8351908301906135658183602088016137a6565b01949350505050565b60006001600160a01b038087168352808616602084015250836040830152608060608301526135a06080830184613513565b9695505050505050565b6020808252825182820181905260009190848201906040850190845b818110156135e2578351835292840192918401916001016135c6565b50909695505050505050565b602081526000611b7b6020830184613513565b604051601f8201601f1916810167ffffffffffffffff8111828210171561362a5761362a613868565b604052919050565b600067ffffffffffffffff82111561364c5761364c613868565b5060051b60200190565b600082198211156136695761366961383c565b500190565b60008261367d5761367d613852565b500490565b600181815b808511156136bd5781600019048211156136a3576136a361383c565b808516156136b057918102915b93841c9390800290613687565b509250929050565b6000611b7b60ff8416836000826136de575060016105fc565b816136eb575060006105fc565b8160018114613701576002811461370b57613727565b60019150506105fc565b60ff84111561371c5761371c61383c565b50506001821b6105fc565b5060208310610133831016604e8410600b841016171561374a575081810a6105fc565b6137548383613682565b80600019048211156137685761376861383c565b029392505050565b600081600019048311821515161561378a5761378a61383c565b500290565b6000828210156137a1576137a161383c565b500390565b60005b838110156137c15781810151838201526020016137a9565b838111156116fb5750506000910152565b600181811c908216806137e657607f821691505b6020821081141561380757634e487b7160e01b600052602260045260246000fd5b50919050565b60006000198214156138215761382161383c565b5060010190565b60008261383757613837613852565b500690565b634e487b7160e01b600052601160045260246000fd5b634e487b7160e01b600052601260045260246000fd5b634e487b7160e01b600052604160045260246000fd5b8015158114610ec357600080fd5b6001600160e01b031981168114610ec357600080fdfe4f776e61626c653a2063616c6c6572206973206e6f7420746865206f776e6572a164736f6c6343000804000a",
  "devdoc": {
    "kind": "dev",
    "methods": {
      "approve(address,uint256)": {
        "details": "See {IERC721-approve}."
      },
      "balanceOf(address)": {
        "details": "See {IERC721-balanceOf}."
      },
      "burn(uint256)": {
        "details": "Burns `tokenId`. See {ERC721-_burn}. Requirements: - The caller must own `tokenId` or be an approved operator."
      },
      "getApproved(uint256)": {
        "details": "See {IERC721-getApproved}."
      },
      "isApprovedForAll(address,address)": {
        "details": "See {IERC721-isApprovedForAll}."
      },
      "name()": {
        "details": "See {IERC721Metadata-name}."
      },
      "owner()": {
        "details": "Returns the address of the current owner."
      },
      "ownerOf(uint256)": {
        "details": "See {IERC721-ownerOf}."
      },
      "paused()": {
        "details": "Returns true if the contract is paused, and false otherwise."
      },
      "renounceOwnership()": {
        "details": "Leaves the contract without owner. It will not be possible to call `onlyOwner` functions anymore. Can only be called by the current owner. NOTE: Renouncing ownership will leave the contract without an owner, thereby removing any functionality that is only available to the owner."
      },
      "safeTransferFrom(address,address,uint256)": {
        "details": "See {IERC721-safeTransferFrom}."
      },
      "safeTransferFrom(address,address,uint256,bytes)": {
        "details": "See {IERC721-safeTransferFrom}."
      },
      "setApprovalForAll(address,bool)": {
        "details": "See {IERC721-setApprovalForAll}."
      },
      "symbol()": {
        "details": "See {IERC721Metadata-symbol}."
      },
      "tokenByIndex(uint256)": {
        "details": "See {IERC721Enumerable-tokenByIndex}."
      },
      "tokenOfOwnerByIndex(address,uint256)": {
        "details": "See {IERC721Enumerable-tokenOfOwnerByIndex}."
      },
      "totalSupply()": {
        "details": "See {IERC721Enumerable-totalSupply}."
      },
      "transferFrom(address,address,uint256)": {
        "details": "See {IERC721-transferFrom}."
      },
      "transferOwnership(address)": {
        "details": "Transfers ownership of the contract to a new account (`newOwner`). Can only be called by the current owner."
      }
    },
    "version": 1
  },
  "userdoc": {
    "kind": "user",
    "methods": {},
    "version": 1
  },
  "storageLayout": {
    "storage": [
      {
        "astId": 1137,
        "contract": "contracts/TigerTribe.sol:TigerTribe",
        "label": "_name",
        "offset": 0,
        "slot": "0",
        "type": "t_string_storage"
      },
      {
        "astId": 1139,
        "contract": "contracts/TigerTribe.sol:TigerTribe",
        "label": "_symbol",
        "offset": 0,
        "slot": "1",
        "type": "t_string_storage"
      },
      {
        "astId": 1143,
        "contract": "contracts/TigerTribe.sol:TigerTribe",
        "label": "_owners",
        "offset": 0,
        "slot": "2",
        "type": "t_mapping(t_uint256,t_address)"
      },
      {
        "astId": 1147,
        "contract": "contracts/TigerTribe.sol:TigerTribe",
        "label": "_balances",
        "offset": 0,
        "slot": "3",
        "type": "t_mapping(t_address,t_uint256)"
      },
      {
        "astId": 1151,
        "contract": "contracts/TigerTribe.sol:TigerTribe",
        "label": "_tokenApprovals",
        "offset": 0,
        "slot": "4",
        "type": "t_mapping(t_uint256,t_address)"
      },
      {
        "astId": 1157,
        "contract": "contracts/TigerTribe.sol:TigerTribe",
        "label": "_operatorApprovals",
        "offset": 0,
        "slot": "5",
        "type": "t_mapping(t_address,t_mapping(t_address,t_bool))"
      },
      {
        "astId": 2156,
        "contract": "contracts/TigerTribe.sol:TigerTribe",
        "label": "_ownedTokens",
        "offset": 0,
        "slot": "6",
        "type": "t_mapping(t_address,t_mapping(t_uint256,t_uint256))"
      },
      {
        "astId": 2160,
        "contract": "contracts/TigerTribe.sol:TigerTribe",
        "label": "_ownedTokensIndex",
        "offset": 0,
        "slot": "7",
        "type": "t_mapping(t_uint256,t_uint256)"
      },
      {
        "astId": 2163,
        "contract": "contracts/TigerTribe.sol:TigerTribe",
        "label": "_allTokens",
        "offset": 0,
        "slot": "8",
        "type": "t_array(t_uint256)dyn_storage"
      },
      {
        "astId": 2167,
        "contract": "contracts/TigerTribe.sol:TigerTribe",
        "label": "_allTokensIndex",
        "offset": 0,
        "slot": "9",
        "type": "t_mapping(t_uint256,t_uint256)"
      },
      {
        "astId": 2492,
        "contract": "contracts/TigerTribe.sol:TigerTribe",
        "label": "_tokenURIs",
        "offset": 0,
        "slot": "10",
        "type": "t_mapping(t_uint256,t_string_storage)"
      },
      {
        "astId": 122,
        "contract": "contracts/TigerTribe.sol:TigerTribe",
        "label": "_paused",
        "offset": 0,
        "slot": "11",
        "type": "t_bool"
      },
      {
        "astId": 7,
        "contract": "contracts/TigerTribe.sol:TigerTribe",
        "label": "_owner",
        "offset": 1,
        "slot": "11",
        "type": "t_address"
      },
      {
        "astId": 4980,
        "contract": "contracts/TigerTribe.sol:TigerTribe",
        "label": "_tokenIdCounter",
        "offset": 0,
        "slot": "12",
        "type": "t_struct(Counter)2988_storage"
      },
      {
        "astId": 4985,
        "contract": "contracts/TigerTribe.sol:TigerTribe",
        "label": "baseURI",
        "offset": 0,
        "slot": "13",
        "type": "t_string_storage"
      },
      {
        "astId": 4987,
        "contract": "contracts/TigerTribe.sol:TigerTribe",
        "label": "redeemableAt",
        "offset": 0,
        "slot": "14",
        "type": "t_uint256"
      },
      {
        "astId": 4989,
        "contract": "contracts/TigerTribe.sol:TigerTribe",
        "label": "backedTokenAddress",
        "offset": 0,
        "slot": "15",
        "type": "t_address"
      },
      {
        "astId": 4991,
        "contract": "contracts/TigerTribe.sol:TigerTribe",
        "label": "lockedMetadata",
        "offset": 20,
        "slot": "15",
        "type": "t_bool"
      },
      {
        "astId": 4995,
        "contract": "contracts/TigerTribe.sol:TigerTribe",
        "label": "backedAmounts",
        "offset": 0,
        "slot": "16",
        "type": "t_mapping(t_uint256,t_uint256)"
      }
    ],
    "types": {
      "t_address": {
        "encoding": "inplace",
        "label": "address",
        "numberOfBytes": "20"
      },
      "t_array(t_uint256)dyn_storage": {
        "base": "t_uint256",
        "encoding": "dynamic_array",
        "label": "uint256[]",
        "numberOfBytes": "32"
      },
      "t_bool": {
        "encoding": "inplace",
        "label": "bool",
        "numberOfBytes": "1"
      },
      "t_mapping(t_address,t_bool)": {
        "encoding": "mapping",
        "key": "t_address",
        "label": "mapping(address => bool)",
        "numberOfBytes": "32",
        "value": "t_bool"
      },
      "t_mapping(t_address,t_mapping(t_address,t_bool))": {
        "encoding": "mapping",
        "key": "t_address",
        "label": "mapping(address => mapping(address => bool))",
        "numberOfBytes": "32",
        "value": "t_mapping(t_address,t_bool)"
      },
      "t_mapping(t_address,t_mapping(t_uint256,t_uint256))": {
        "encoding": "mapping",
        "key": "t_address",
        "label": "mapping(address => mapping(uint256 => uint256))",
        "numberOfBytes": "32",
        "value": "t_mapping(t_uint256,t_uint256)"
      },
      "t_mapping(t_address,t_uint256)": {
        "encoding": "mapping",
        "key": "t_address",
        "label": "mapping(address => uint256)",
        "numberOfBytes": "32",
        "value": "t_uint256"
      },
      "t_mapping(t_uint256,t_address)": {
        "encoding": "mapping",
        "key": "t_uint256",
        "label": "mapping(uint256 => address)",
        "numberOfBytes": "32",
        "value": "t_address"
      },
      "t_mapping(t_uint256,t_string_storage)": {
        "encoding": "mapping",
        "key": "t_uint256",
        "label": "mapping(uint256 => string)",
        "numberOfBytes": "32",
        "value": "t_string_storage"
      },
      "t_mapping(t_uint256,t_uint256)": {
        "encoding": "mapping",
        "key": "t_uint256",
        "label": "mapping(uint256 => uint256)",
        "numberOfBytes": "32",
        "value": "t_uint256"
      },
      "t_string_storage": {
        "encoding": "bytes",
        "label": "string",
        "numberOfBytes": "32"
      },
      "t_struct(Counter)2988_storage": {
        "encoding": "inplace",
        "label": "struct Counters.Counter",
        "members": [
          {
            "astId": 2987,
            "contract": "contracts/TigerTribe.sol:TigerTribe",
            "label": "_value",
            "offset": 0,
            "slot": "0",
            "type": "t_uint256"
          }
        ],
        "numberOfBytes": "32"
      },
      "t_uint256": {
        "encoding": "inplace",
        "label": "uint256",
        "numberOfBytes": "32"
      }
    }
  }
}